{
  "_format": "hh-sol-artifact-1",
  "contractName": "WhitelistPaymaster",
  "sourceName": "contracts/WhitelistPaymaster.sol",
  "abi": [
    {
      "anonymous": false,
      "inputs": [
        {
          "indexed": true,
          "internalType": "address",
          "name": "previousOwner",
          "type": "address"
        },
        {
          "indexed": true,
          "internalType": "address",
          "name": "newOwner",
          "type": "address"
        }
      ],
      "name": "OwnershipTransferred",
      "type": "event"
    },
    {
      "inputs": [],
      "name": "CALLDATA_SIZE_LIMIT",
      "outputs": [
        {
          "internalType": "uint256",
          "name": "",
          "type": "uint256"
        }
      ],
      "stateMutability": "view",
      "type": "function"
    },
    {
      "inputs": [],
      "name": "FORWARDER_HUB_OVERHEAD",
      "outputs": [
        {
          "internalType": "uint256",
          "name": "",
          "type": "uint256"
        }
      ],
      "stateMutability": "view",
      "type": "function"
    },
    {
      "inputs": [],
      "name": "PAYMASTER_ACCEPTANCE_BUDGET",
      "outputs": [
        {
          "internalType": "uint256",
          "name": "",
          "type": "uint256"
        }
      ],
      "stateMutability": "view",
      "type": "function"
    },
    {
      "inputs": [],
      "name": "POST_RELAYED_CALL_GAS_LIMIT",
      "outputs": [
        {
          "internalType": "uint256",
          "name": "",
          "type": "uint256"
        }
      ],
      "stateMutability": "view",
      "type": "function"
    },
    {
      "inputs": [],
      "name": "PRE_RELAYED_CALL_GAS_LIMIT",
      "outputs": [
        {
          "internalType": "uint256",
          "name": "",
          "type": "uint256"
        }
      ],
      "stateMutability": "view",
      "type": "function"
    },
    {
      "inputs": [],
      "name": "getGasAndDataLimits",
      "outputs": [
        {
          "components": [
            {
              "internalType": "uint256",
              "name": "acceptanceBudget",
              "type": "uint256"
            },
            {
              "internalType": "uint256",
              "name": "preRelayedCallGasLimit",
              "type": "uint256"
            },
            {
              "internalType": "uint256",
              "name": "postRelayedCallGasLimit",
              "type": "uint256"
            },
            {
              "internalType": "uint256",
              "name": "calldataSizeLimit",
              "type": "uint256"
            }
          ],
          "internalType": "struct IPaymaster.GasAndDataLimits",
          "name": "limits",
          "type": "tuple"
        }
      ],
      "stateMutability": "view",
      "type": "function"
    },
    {
      "inputs": [],
      "name": "getRelayHub",
      "outputs": [
        {
          "internalType": "address",
          "name": "",
          "type": "address"
        }
      ],
      "stateMutability": "view",
      "type": "function"
    },
    {
      "inputs": [],
      "name": "getTrustedForwarder",
      "outputs": [
        {
          "internalType": "address",
          "name": "",
          "type": "address"
        }
      ],
      "stateMutability": "view",
      "type": "function"
    },
    {
      "inputs": [
        {
          "internalType": "address",
          "name": "",
          "type": "address"
        },
        {
          "internalType": "bytes4",
          "name": "",
          "type": "bytes4"
        }
      ],
      "name": "methodWhitelist",
      "outputs": [
        {
          "internalType": "bool",
          "name": "",
          "type": "bool"
        }
      ],
      "stateMutability": "view",
      "type": "function"
    },
    {
      "inputs": [],
      "name": "owner",
      "outputs": [
        {
          "internalType": "address",
          "name": "",
          "type": "address"
        }
      ],
      "stateMutability": "view",
      "type": "function"
    },
    {
      "inputs": [
        {
          "internalType": "bytes",
          "name": "context",
          "type": "bytes"
        },
        {
          "internalType": "bool",
          "name": "success",
          "type": "bool"
        },
        {
          "internalType": "uint256",
          "name": "gasUseWithoutPost",
          "type": "uint256"
        },
        {
          "components": [
            {
              "internalType": "uint256",
              "name": "maxFeePerGas",
              "type": "uint256"
            },
            {
              "internalType": "uint256",
              "name": "maxPriorityFeePerGas",
              "type": "uint256"
            },
            {
              "internalType": "uint256",
              "name": "transactionCalldataGasUsed",
              "type": "uint256"
            },
            {
              "internalType": "address",
              "name": "relayWorker",
              "type": "address"
            },
            {
              "internalType": "address",
              "name": "paymaster",
              "type": "address"
            },
            {
              "internalType": "address",
              "name": "forwarder",
              "type": "address"
            },
            {
              "internalType": "bytes",
              "name": "paymasterData",
              "type": "bytes"
            },
            {
              "internalType": "uint256",
              "name": "clientId",
              "type": "uint256"
            }
          ],
          "internalType": "struct GsnTypes.RelayData",
          "name": "relayData",
          "type": "tuple"
        }
      ],
      "name": "postRelayedCall",
      "outputs": [],
      "stateMutability": "nonpayable",
      "type": "function"
    },
    {
      "inputs": [
        {
          "components": [
            {
              "components": [
                {
                  "internalType": "address",
                  "name": "from",
                  "type": "address"
                },
                {
                  "internalType": "address",
                  "name": "to",
                  "type": "address"
                },
                {
                  "internalType": "uint256",
                  "name": "value",
                  "type": "uint256"
                },
                {
                  "internalType": "uint256",
                  "name": "gas",
                  "type": "uint256"
                },
                {
                  "internalType": "uint256",
                  "name": "nonce",
                  "type": "uint256"
                },
                {
                  "internalType": "bytes",
                  "name": "data",
                  "type": "bytes"
                },
                {
                  "internalType": "uint256",
                  "name": "validUntilTime",
                  "type": "uint256"
                }
              ],
              "internalType": "struct IForwarder.ForwardRequest",
              "name": "request",
              "type": "tuple"
            },
            {
              "components": [
                {
                  "internalType": "uint256",
                  "name": "maxFeePerGas",
                  "type": "uint256"
                },
                {
                  "internalType": "uint256",
                  "name": "maxPriorityFeePerGas",
                  "type": "uint256"
                },
                {
                  "internalType": "uint256",
                  "name": "transactionCalldataGasUsed",
                  "type": "uint256"
                },
                {
                  "internalType": "address",
                  "name": "relayWorker",
                  "type": "address"
                },
                {
                  "internalType": "address",
                  "name": "paymaster",
                  "type": "address"
                },
                {
                  "internalType": "address",
                  "name": "forwarder",
                  "type": "address"
                },
                {
                  "internalType": "bytes",
                  "name": "paymasterData",
                  "type": "bytes"
                },
                {
                  "internalType": "uint256",
                  "name": "clientId",
                  "type": "uint256"
                }
              ],
              "internalType": "struct GsnTypes.RelayData",
              "name": "relayData",
              "type": "tuple"
            }
          ],
          "internalType": "struct GsnTypes.RelayRequest",
          "name": "relayRequest",
          "type": "tuple"
        },
        {
          "internalType": "bytes",
          "name": "signature",
          "type": "bytes"
        },
        {
          "internalType": "bytes",
          "name": "approvalData",
          "type": "bytes"
        },
        {
          "internalType": "uint256",
          "name": "maxPossibleGas",
          "type": "uint256"
        }
      ],
      "name": "preRelayedCall",
      "outputs": [
        {
          "internalType": "bytes",
          "name": "",
          "type": "bytes"
        },
        {
          "internalType": "bool",
          "name": "",
          "type": "bool"
        }
      ],
      "stateMutability": "nonpayable",
      "type": "function"
    },
    {
      "inputs": [],
      "name": "renounceOwnership",
      "outputs": [],
      "stateMutability": "nonpayable",
      "type": "function"
    },
    {
      "inputs": [
        {
          "internalType": "address",
          "name": "",
          "type": "address"
        }
      ],
      "name": "senderWhitelist",
      "outputs": [
        {
          "internalType": "bool",
          "name": "",
          "type": "bool"
        }
      ],
      "stateMutability": "view",
      "type": "function"
    },
    {
      "inputs": [
        {
          "internalType": "bool",
          "name": "_useSenderWhitelist",
          "type": "bool"
        },
        {
          "internalType": "bool",
          "name": "_useTargetWhitelist",
          "type": "bool"
        },
        {
          "internalType": "bool",
          "name": "_useMethodWhitelist",
          "type": "bool"
        },
        {
          "internalType": "bool",
          "name": "_useRejectOnRecipientRevert",
          "type": "bool"
        }
      ],
      "name": "setConfiguration",
      "outputs": [],
      "stateMutability": "nonpayable",
      "type": "function"
    },
    {
      "inputs": [
        {
          "internalType": "contract IRelayHub",
          "name": "hub",
          "type": "address"
        }
      ],
      "name": "setRelayHub",
      "outputs": [],
      "stateMutability": "nonpayable",
      "type": "function"
    },
    {
      "inputs": [
        {
          "internalType": "address",
          "name": "forwarder",
          "type": "address"
        }
      ],
      "name": "setTrustedForwarder",
      "outputs": [],
      "stateMutability": "nonpayable",
      "type": "function"
    },
    {
      "inputs": [
        {
          "internalType": "bytes4",
          "name": "interfaceId",
          "type": "bytes4"
        }
      ],
      "name": "supportsInterface",
      "outputs": [
        {
          "internalType": "bool",
          "name": "",
          "type": "bool"
        }
      ],
      "stateMutability": "view",
      "type": "function"
    },
    {
      "inputs": [
        {
          "internalType": "address",
          "name": "",
          "type": "address"
        }
      ],
      "name": "targetWhitelist",
      "outputs": [
        {
          "internalType": "bool",
          "name": "",
          "type": "bool"
        }
      ],
      "stateMutability": "view",
      "type": "function"
    },
    {
      "inputs": [
        {
          "internalType": "address",
          "name": "newOwner",
          "type": "address"
        }
      ],
      "name": "transferOwnership",
      "outputs": [],
      "stateMutability": "nonpayable",
      "type": "function"
    },
    {
      "inputs": [],
      "name": "useMethodWhitelist",
      "outputs": [
        {
          "internalType": "bool",
          "name": "",
          "type": "bool"
        }
      ],
      "stateMutability": "view",
      "type": "function"
    },
    {
      "inputs": [],
      "name": "useRejectOnRecipientRevert",
      "outputs": [
        {
          "internalType": "bool",
          "name": "",
          "type": "bool"
        }
      ],
      "stateMutability": "view",
      "type": "function"
    },
    {
      "inputs": [],
      "name": "useSenderWhitelist",
      "outputs": [
        {
          "internalType": "bool",
          "name": "",
          "type": "bool"
        }
      ],
      "stateMutability": "view",
      "type": "function"
    },
    {
      "inputs": [],
      "name": "useTargetWhitelist",
      "outputs": [
        {
          "internalType": "bool",
          "name": "",
          "type": "bool"
        }
      ],
      "stateMutability": "view",
      "type": "function"
    },
    {
      "inputs": [],
      "name": "versionPaymaster",
      "outputs": [
        {
          "internalType": "string",
          "name": "",
          "type": "string"
        }
      ],
      "stateMutability": "view",
      "type": "function"
    },
    {
      "inputs": [
        {
          "internalType": "address",
          "name": "target",
          "type": "address"
        },
        {
          "internalType": "bytes4",
          "name": "method",
          "type": "bytes4"
        },
        {
          "internalType": "bool",
          "name": "isAllowed",
          "type": "bool"
        }
      ],
      "name": "whitelistMethod",
      "outputs": [],
      "stateMutability": "nonpayable",
      "type": "function"
    },
    {
      "inputs": [
        {
          "internalType": "address",
          "name": "sender",
          "type": "address"
        },
        {
          "internalType": "bool",
          "name": "isAllowed",
          "type": "bool"
        }
      ],
      "name": "whitelistSender",
      "outputs": [],
      "stateMutability": "nonpayable",
      "type": "function"
    },
    {
      "inputs": [
        {
          "internalType": "address",
          "name": "target",
          "type": "address"
        },
        {
          "internalType": "bool",
          "name": "isAllowed",
          "type": "bool"
        }
      ],
      "name": "whitelistTarget",
      "outputs": [],
      "stateMutability": "nonpayable",
      "type": "function"
    },
    {
      "inputs": [
        {
          "internalType": "uint256",
          "name": "amount",
          "type": "uint256"
        },
        {
          "internalType": "address payable",
          "name": "target",
          "type": "address"
        }
      ],
      "name": "withdrawRelayHubDepositTo",
      "outputs": [],
      "stateMutability": "nonpayable",
      "type": "function"
    },
    {
      "stateMutability": "payable",
      "type": "receive"
    }
  ],
  "bytecode": "0x60806040523480156200001157600080fd5b5062000032620000266200003860201b60201c565b6200004060201b60201c565b62000104565b600033905090565b60008060009054906101000a900473ffffffffffffffffffffffffffffffffffffffff169050816000806101000a81548173ffffffffffffffffffffffffffffffffffffffff021916908373ffffffffffffffffffffffffffffffffffffffff1602179055508173ffffffffffffffffffffffffffffffffffffffff168173ffffffffffffffffffffffffffffffffffffffff167f8be0079c531659141344cd1fd0a4f28419497f9722a3daafe3b4186f6b6457e060405160405180910390a35050565b612e3a80620001146000396000f3fe6080604052600436106101c55760003560e01c80638222f07d116100f7578063bbdaa3c911610095578063df463a6611610064578063df463a6614610757578063e1838f8d14610782578063f2fde38b146107ab578063f9c002f7146107d4576102e6565b8063bbdaa3c9146106ad578063ce1b815f146106d8578063da74222814610703578063dd1bcaa11461072c576102e6565b80638da5cb5b116100d15780638da5cb5b14610601578063921276ea1461062c578063b039a88f14610657578063b90b41cf14610682576102e6565b80638222f07d1461055e578063858437b01461059b57806386c0a9f8146105d8576102e6565b80634f28bfb911610164578063715018a61161013e578063715018a6146104ca57806376fa01c3146104e15780637bb052641461050a5780637bdf2ec714610533576102e6565b80634f28bfb9146104495780634f33b4dd146104745780635c5e3db11461049f576102e6565b80630d4ca3a4116101a05780630d4ca3a41461038f57806312256054146103ba5780632d14c4b7146103e35780633a0892e31461040c576102e6565b8062be5dd4146102eb57806301ffc9a7146103295780630613fef814610366576102e6565b366102e657600073ffffffffffffffffffffffffffffffffffffffff16600160009054906101000a900473ffffffffffffffffffffffffffffffffffffffff1673ffffffffffffffffffffffffffffffffffffffff160361025b576040517f08c379a000000000000000000000000000000000000000000000000000000000815260040161025290611c02565b60405180910390fd5b600160009054906101000a900473ffffffffffffffffffffffffffffffffffffffff1673ffffffffffffffffffffffffffffffffffffffff1663aa67c91934306040518363ffffffff1660e01b81526004016102b79190611c63565b6000604051808303818588803b1580156102d057600080fd5b505af11580156102e4573d6000803e3d6000fd5b005b600080fd5b3480156102f757600080fd5b50610312600480360381019061030d9190611d47565b6107ff565b604051610320929190611eb5565b60405180910390f35b34801561033557600080fd5b50610350600480360381019061034b9190611f3d565b61084d565b60405161035d9190611f6a565b60405180910390f35b34801561037257600080fd5b5061038d60048036038101906103889190611fdd565b61092f565b005b34801561039b57600080fd5b506103a4610992565b6040516103b19190611f6a565b60405180910390f35b3480156103c657600080fd5b506103e160048036038101906103dc9190611fdd565b6109a5565b005b3480156103ef57600080fd5b5061040a6004803603810190610405919061205b565b610a08565b005b34801561041857600080fd5b50610433600480360381019061042e919061209b565b610aa3565b6040516104409190611f6a565b60405180910390f35b34801561045557600080fd5b5061045e610ad2565b60405161046b9190611f6a565b60405180910390f35b34801561048057600080fd5b50610489610ae5565b6040516104969190611f6a565b60405180910390f35b3480156104ab57600080fd5b506104b4610af8565b6040516104c191906120ea565b60405180910390f35b3480156104d657600080fd5b506104df610afe565b005b3480156104ed57600080fd5b5061050860048036038101906105039190612125565b610b12565b005b34801561051657600080fd5b50610531600480360381019061052c9190612207565b610b2e565b005b34801561053f57600080fd5b50610548610c02565b6040516105559190611c63565b60405180910390f35b34801561056a57600080fd5b5061058560048036038101906105809190612234565b610c2c565b6040516105929190611f6a565b60405180910390f35b3480156105a757600080fd5b506105c260048036038101906105bd9190612234565b610c4c565b6040516105cf9190611f6a565b60405180910390f35b3480156105e457600080fd5b506105ff60048036038101906105fa9190612261565b610c6c565b005b34801561060d57600080fd5b50610616610ce2565b6040516106239190611c63565b60405180910390f35b34801561063857600080fd5b50610641610d0b565b60405161064e919061230c565b60405180910390f35b34801561066357600080fd5b5061066c610d2b565b6040516106799190612392565b60405180910390f35b34801561068e57600080fd5b50610697610d71565b6040516106a491906120ea565b60405180910390f35b3480156106b957600080fd5b506106c2610d77565b6040516106cf91906120ea565b60405180910390f35b3480156106e457600080fd5b506106ed610d7e565b6040516106fa9190611c63565b60405180910390f35b34801561070f57600080fd5b5061072a60048036038101906107259190612234565b610da8565b005b34801561073857600080fd5b50610741610e7c565b60405161074e9190611f6a565b60405180910390f35b34801561076357600080fd5b5061076c610e8f565b60405161077991906120ea565b60405180910390f35b34801561078e57600080fd5b506107a960048036038101906107a491906123ad565b610ea3565b005b3480156107b757600080fd5b506107d260048036038101906107cd9190612234565b610f56565b005b3480156107e057600080fd5b506107e9610fd9565b6040516107f691906120ea565b60405180910390f35b6060600061080b610fe0565b61081488611057565b61081d886110f9565b61082688611152565b61083085856111b8565b61083e888888888888611202565b91509150965096945050505050565b60007fe1ab2dea000000000000000000000000000000000000000000000000000000007bffffffffffffffffffffffffffffffffffffffffffffffffffffffff1916827bffffffffffffffffffffffffffffffffffffffffffffffffffffffff1916148061091857507f0e083076000000000000000000000000000000000000000000000000000000007bffffffffffffffffffffffffffffffffffffffffffffffffffffffff1916827bffffffffffffffffffffffffffffffffffffffffffffffffffffffff1916145b806109285750610927826115f7565b5b9050919050565b610937611661565b80600360008473ffffffffffffffffffffffffffffffffffffffff1673ffffffffffffffffffffffffffffffffffffffff16815260200190815260200160002060006101000a81548160ff0219169083151502179055505050565b600260169054906101000a900460ff1681565b6109ad611661565b80600460008473ffffffffffffffffffffffffffffffffffffffff1673ffffffffffffffffffffffffffffffffffffffff16815260200190815260200160002060006101000a81548160ff0219169083151502179055505050565b610a10611661565b600160009054906101000a900473ffffffffffffffffffffffffffffffffffffffff1673ffffffffffffffffffffffffffffffffffffffff1663f3fef3a382846040518363ffffffff1660e01b8152600401610a6d92919061240f565b600060405180830381600087803b158015610a8757600080fd5b505af1158015610a9b573d6000803e3d6000fd5b505050505050565b60056020528160005260406000206020528060005260406000206000915091509054906101000a900460ff1681565b600260159054906101000a900460ff1681565b600260179054906101000a900460ff1681565b61290481565b610b06611661565b610b1060006116df565b565b610b1a610fe0565b610b2785858585856117a3565b5050505050565b610b36611661565b610b7f7fe9fb30f7000000000000000000000000000000000000000000000000000000008273ffffffffffffffffffffffffffffffffffffffff166117aa90919063ffffffff16565b610bbe576040517f08c379a0000000000000000000000000000000000000000000000000000000008152600401610bb590612484565b60405180910390fd5b80600160006101000a81548173ffffffffffffffffffffffffffffffffffffffff021916908373ffffffffffffffffffffffffffffffffffffffff16021790555050565b6000600160009054906101000a900473ffffffffffffffffffffffffffffffffffffffff16905090565b60036020528060005260406000206000915054906101000a900460ff1681565b60046020528060005260406000206000915054906101000a900460ff1681565b610c74611661565b83600260146101000a81548160ff02191690831515021790555082600260156101000a81548160ff02191690831515021790555081600260166101000a81548160ff02191690831515021790555080600260176101000a81548160ff02191690831515021790555050505050565b60008060009054906101000a900473ffffffffffffffffffffffffffffffffffffffff16905090565b6060604051806060016040528060298152602001612ddc60299139905090565b610d33611b7d565b604051806080016040528061c350620186a0610d4f91906124d3565b8152602001620186a081526020016201adb08152602001612904815250905090565b61c35081565b6201adb081565b6000600260009054906101000a900473ffffffffffffffffffffffffffffffffffffffff16905090565b610db0611661565b610df97f25e23e64000000000000000000000000000000000000000000000000000000008273ffffffffffffffffffffffffffffffffffffffff166117aa90919063ffffffff16565b610e38576040517f08c379a0000000000000000000000000000000000000000000000000000000008152600401610e2f90612553565b60405180910390fd5b80600260006101000a81548173ffffffffffffffffffffffffffffffffffffffff021916908373ffffffffffffffffffffffffffffffffffffffff16021790555050565b600260149054906101000a900460ff1681565b61c350620186a0610ea091906124d3565b81565b610eab611661565b80600560008573ffffffffffffffffffffffffffffffffffffffff1673ffffffffffffffffffffffffffffffffffffffff1681526020019081526020016000206000847bffffffffffffffffffffffffffffffffffffffffffffffffffffffff19167bffffffffffffffffffffffffffffffffffffffffffffffffffffffff1916815260200190815260200160002060006101000a81548160ff021916908315150217905550505050565b610f5e611661565b600073ffffffffffffffffffffffffffffffffffffffff168173ffffffffffffffffffffffffffffffffffffffff1603610fcd576040517f08c379a0000000000000000000000000000000000000000000000000000000008152600401610fc4906125e5565b60405180910390fd5b610fd6816116df565b50565b620186a081565b610fe8610c02565b73ffffffffffffffffffffffffffffffffffffffff163373ffffffffffffffffffffffffffffffffffffffff1614611055576040517f08c379a000000000000000000000000000000000000000000000000000000000815260040161104c90612651565b60405180910390fd5b565b8080602001906110679190612680565b60a00160208101906110799190612234565b73ffffffffffffffffffffffffffffffffffffffff16611097610d7e565b73ffffffffffffffffffffffffffffffffffffffff16146110ed576040517f08c379a00000000000000000000000000000000000000000000000000000000081526004016110e4906126f5565b60405180910390fd5b6110f6816117cf565b50565b600081806000019061110b9190612715565b604001351461114f576040517f08c379a000000000000000000000000000000000000000000000000000000000815260040161114690612789565b60405180910390fd5b50565b60008180602001906111649190612680565b8060c0019061117391906127a9565b9050146111b5576040517f08c379a00000000000000000000000000000000000000000000000000000000081526004016111ac90612858565b60405180910390fd5b50565b600082829050146111fe576040517f08c379a00000000000000000000000000000000000000000000000000000000081526004016111f5906128c4565b60405180910390fd5b5050565b6060600080858590501461124b576040517f08c379a000000000000000000000000000000000000000000000000000000000815260040161124290612930565b60405180910390fd5b600088806020019061125d9190612680565b8060c0019061126c91906127a9565b9050146112ae576040517f08c379a00000000000000000000000000000000000000000000000000000000081526004016112a59061299c565b60405180910390fd5b600260149054906101000a900460ff16156113775760008880600001906112d59190612715565b60000160208101906112e79190612234565b9050600360008273ffffffffffffffffffffffffffffffffffffffff1673ffffffffffffffffffffffffffffffffffffffff16815260200190815260200160002060009054906101000a900460ff16611375576040517f08c379a000000000000000000000000000000000000000000000000000000000815260040161136c90612a08565b60405180910390fd5b505b600260159054906101000a900460ff161561144057600088806000019061139e9190612715565b60200160208101906113b09190612234565b9050600460008273ffffffffffffffffffffffffffffffffffffffff1673ffffffffffffffffffffffffffffffffffffffff16815260200190815260200160002060009054906101000a900460ff1661143e576040517f08c379a000000000000000000000000000000000000000000000000000000000815260040161143590612a74565b60405180910390fd5b505b600260169054906101000a900460ff16156115c75760008880600001906114679190612715565b60200160208101906114799190612234565b905060006114e78a80600001906114909190612715565b8060a0019061149f91906127a9565b8080601f016020809104026020016040519081016040528093929190818152602001838380828437600081840152601f19601f820116905080830192505050505050506119cf565b9050600560008373ffffffffffffffffffffffffffffffffffffffff1673ffffffffffffffffffffffffffffffffffffffff1681526020019081526020016000206000827bffffffffffffffffffffffffffffffffffffffffffffffffffffffff19167bffffffffffffffffffffffffffffffffffffffffffffffffffffffff1916815260200190815260200160002060009054906101000a900460ff166115c4576040517f08c379a00000000000000000000000000000000000000000000000000000000081526004016115bb90612ae0565b60405180910390fd5b50505b600260179054906101000a900460ff16604051806020016040528060008152509091509150965096945050505050565b60007f01ffc9a7000000000000000000000000000000000000000000000000000000007bffffffffffffffffffffffffffffffffffffffffffffffffffffffff1916827bffffffffffffffffffffffffffffffffffffffffffffffffffffffff1916149050919050565b6116696119e3565b73ffffffffffffffffffffffffffffffffffffffff16611687610ce2565b73ffffffffffffffffffffffffffffffffffffffff16146116dd576040517f08c379a00000000000000000000000000000000000000000000000000000000081526004016116d490612b4c565b60405180910390fd5b565b60008060009054906101000a900473ffffffffffffffffffffffffffffffffffffffff169050816000806101000a81548173ffffffffffffffffffffffffffffffffffffffff021916908373ffffffffffffffffffffffffffffffffffffffff1602179055508173ffffffffffffffffffffffffffffffffffffffff168173ffffffffffffffffffffffffffffffffffffffff167f8be0079c531659141344cd1fd0a4f28419497f9722a3daafe3b4186f6b6457e060405160405180910390a35050565b5050505050565b60006117b5836119eb565b80156117c757506117c68383611a38565b5b905092915050565b6000808280600001906117e29190612715565b60200160208101906117f49190612234565b73ffffffffffffffffffffffffffffffffffffffff1663572b6c0560e01b8480602001906118229190612680565b60a00160208101906118349190612234565b6040516024016118449190611c63565b604051602081830303815290604052907bffffffffffffffffffffffffffffffffffffffffffffffffffffffff19166020820180517bffffffffffffffffffffffffffffffffffffffffffffffffffffffff83818316178352505050506040516118ae9190612ba8565b600060405180830381855afa9150503d80600081146118e9576040519150601f19603f3d011682016040523d82523d6000602084013e6118ee565b606091505b509150915081611933576040517f08c379a000000000000000000000000000000000000000000000000000000000815260040161192a90612c0b565b60405180910390fd5b6020815114611977576040517f08c379a000000000000000000000000000000000000000000000000000000000815260040161196e90612c77565b60405180910390fd5b8080602001905181019061198b9190612cac565b6119ca576040517f08c379a00000000000000000000000000000000000000000000000000000000081526004016119c190612d25565b60405180910390fd5b505050565b60006119dc826000611af7565b9050919050565b600033905090565b6000611a17827f01ffc9a700000000000000000000000000000000000000000000000000000000611a38565b8015611a315750611a2f8263ffffffff60e01b611a38565b155b9050919050565b6000806301ffc9a760e01b83604051602401611a549190612d54565b604051602081830303815290604052907bffffffffffffffffffffffffffffffffffffffffffffffffffffffff19166020820180517bffffffffffffffffffffffffffffffffffffffffffffffffffffffff838183161783525050505090506000806000602060008551602087018a617530fa92503d91506000519050828015611adf575060208210155b8015611aeb5750600081115b94505050505092915050565b6000600482611b0691906124d3565b83511015611b49576040517f08c379a0000000000000000000000000000000000000000000000000000000008152600401611b4090612dbb565b60405180910390fd5b6020820183015190507fffffffff000000000000000000000000000000000000000000000000000000008116905092915050565b6040518060800160405280600081526020016000815260200160008152602001600081525090565b600082825260208201905092915050565b7f72656c6179206875622061646472657373206e6f742073657400000000000000600082015250565b6000611bec601983611ba5565b9150611bf782611bb6565b602082019050919050565b60006020820190508181036000830152611c1b81611bdf565b9050919050565b600073ffffffffffffffffffffffffffffffffffffffff82169050919050565b6000611c4d82611c22565b9050919050565b611c5d81611c42565b82525050565b6000602082019050611c786000830184611c54565b92915050565b600080fd5b600080fd5b600080fd5b600060408284031215611ca357611ca2611c88565b5b81905092915050565b600080fd5b600080fd5b600080fd5b60008083601f840112611cd157611cd0611cac565b5b8235905067ffffffffffffffff811115611cee57611ced611cb1565b5b602083019150836001820283011115611d0a57611d09611cb6565b5b9250929050565b6000819050919050565b611d2481611d11565b8114611d2f57600080fd5b50565b600081359050611d4181611d1b565b92915050565b60008060008060008060808789031215611d6457611d63611c7e565b5b600087013567ffffffffffffffff811115611d8257611d81611c83565b5b611d8e89828a01611c8d565b965050602087013567ffffffffffffffff811115611daf57611dae611c83565b5b611dbb89828a01611cbb565b9550955050604087013567ffffffffffffffff811115611dde57611ddd611c83565b5b611dea89828a01611cbb565b93509350506060611dfd89828a01611d32565b9150509295509295509295565b600081519050919050565b600082825260208201905092915050565b60005b83811015611e44578082015181840152602081019050611e29565b60008484015250505050565b6000601f19601f8301169050919050565b6000611e6c82611e0a565b611e768185611e15565b9350611e86818560208601611e26565b611e8f81611e50565b840191505092915050565b60008115159050919050565b611eaf81611e9a565b82525050565b60006040820190508181036000830152611ecf8185611e61565b9050611ede6020830184611ea6565b9392505050565b60007fffffffff0000000000000000000000000000000000000000000000000000000082169050919050565b611f1a81611ee5565b8114611f2557600080fd5b50565b600081359050611f3781611f11565b92915050565b600060208284031215611f5357611f52611c7e565b5b6000611f6184828501611f28565b91505092915050565b6000602082019050611f7f6000830184611ea6565b92915050565b611f8e81611c42565b8114611f9957600080fd5b50565b600081359050611fab81611f85565b92915050565b611fba81611e9a565b8114611fc557600080fd5b50565b600081359050611fd781611fb1565b92915050565b60008060408385031215611ff457611ff3611c7e565b5b600061200285828601611f9c565b925050602061201385828601611fc8565b9150509250929050565b600061202882611c22565b9050919050565b6120388161201d565b811461204357600080fd5b50565b6000813590506120558161202f565b92915050565b6000806040838503121561207257612071611c7e565b5b600061208085828601611d32565b925050602061209185828601612046565b9150509250929050565b600080604083850312156120b2576120b1611c7e565b5b60006120c085828601611f9c565b92505060206120d185828601611f28565b9150509250929050565b6120e481611d11565b82525050565b60006020820190506120ff60008301846120db565b92915050565b6000610100828403121561211c5761211b611c88565b5b81905092915050565b60008060008060006080868803121561214157612140611c7e565b5b600086013567ffffffffffffffff81111561215f5761215e611c83565b5b61216b88828901611cbb565b9550955050602061217e88828901611fc8565b935050604061218f88828901611d32565b925050606086013567ffffffffffffffff8111156121b0576121af611c83565b5b6121bc88828901612105565b9150509295509295909350565b60006121d482611c42565b9050919050565b6121e4816121c9565b81146121ef57600080fd5b50565b600081359050612201816121db565b92915050565b60006020828403121561221d5761221c611c7e565b5b600061222b848285016121f2565b91505092915050565b60006020828403121561224a57612249611c7e565b5b600061225884828501611f9c565b91505092915050565b6000806000806080858703121561227b5761227a611c7e565b5b600061228987828801611fc8565b945050602061229a87828801611fc8565b93505060406122ab87828801611fc8565b92505060606122bc87828801611fc8565b91505092959194509250565b600081519050919050565b60006122de826122c8565b6122e88185611ba5565b93506122f8818560208601611e26565b61230181611e50565b840191505092915050565b6000602082019050818103600083015261232681846122d3565b905092915050565b61233781611d11565b82525050565b608082016000820151612353600085018261232e565b506020820151612366602085018261232e565b506040820151612379604085018261232e565b50606082015161238c606085018261232e565b50505050565b60006080820190506123a7600083018461233d565b92915050565b6000806000606084860312156123c6576123c5611c7e565b5b60006123d486828701611f9c565b93505060206123e586828701611f28565b92505060406123f686828701611fc8565b9150509250925092565b6124098161201d565b82525050565b60006040820190506124246000830185612400565b61243160208301846120db565b9392505050565b7f746172676574206973206e6f7420612076616c6964204952656c617948756200600082015250565b600061246e601f83611ba5565b915061247982612438565b602082019050919050565b6000602082019050818103600083015261249d81612461565b9050919050565b7f4e487b7100000000000000000000000000000000000000000000000000000000600052601160045260246000fd5b60006124de82611d11565b91506124e983611d11565b9250828201905080821115612501576125006124a4565b5b92915050565b7f746172676574206973206e6f7420612076616c69642049466f72776172646572600082015250565b600061253d602083611ba5565b915061254882612507565b602082019050919050565b6000602082019050818103600083015261256c81612530565b9050919050565b7f4f776e61626c653a206e6577206f776e657220697320746865207a65726f206160008201527f6464726573730000000000000000000000000000000000000000000000000000602082015250565b60006125cf602683611ba5565b91506125da82612573565b604082019050919050565b600060208201905081810360008301526125fe816125c2565b9050919050565b7f63616e206f6e6c792062652063616c6c65642062792052656c61794875620000600082015250565b600061263b601e83611ba5565b915061264682612605565b602082019050919050565b6000602082019050818103600083015261266a8161262e565b9050919050565b600080fd5b600080fd5b600080fd5b6000823560016101000383360303811261269d5761269c612671565b5b80830191505092915050565b7f466f72776172646572206973206e6f7420747275737465640000000000000000600082015250565b60006126df601883611ba5565b91506126ea826126a9565b602082019050919050565b6000602082019050818103600083015261270e816126d2565b9050919050565b60008235600160e00383360303811261273157612730612671565b5b80830191505092915050565b7f76616c7565207472616e73666572206e6f7420737570706f7274656400000000600082015250565b6000612773601c83611ba5565b915061277e8261273d565b602082019050919050565b600060208201905081810360008301526127a281612766565b9050919050565b600080833560016020038436030381126127c6576127c5612671565b5b80840192508235915067ffffffffffffffff8211156127e8576127e7612676565b5b6020830192506001820236038313156128045761280361267b565b5b509250929050565b7f73686f756c642068617665206e6f207061796d61737465724461746100000000600082015250565b6000612842601c83611ba5565b915061284d8261280c565b602082019050919050565b6000602082019050818103600083015261287181612835565b9050919050565b7f73686f756c642068617665206e6f20617070726f76616c446174610000000000600082015250565b60006128ae601b83611ba5565b91506128b982612878565b602082019050919050565b600060208201905081810360008301526128dd816128a1565b9050919050565b7f617070726f76616c446174613a20696e76616c6964206c656e67746800000000600082015250565b600061291a601c83611ba5565b9150612925826128e4565b602082019050919050565b600060208201905081810360008301526129498161290d565b9050919050565b7f7061796d6173746572446174613a20696e76616c6964206c656e677468000000600082015250565b6000612986601d83611ba5565b915061299182612950565b602082019050919050565b600060208201905081810360008301526129b581612979565b9050919050565b7f73656e646572206e6f742077686974656c697374656400000000000000000000600082015250565b60006129f2601683611ba5565b91506129fd826129bc565b602082019050919050565b60006020820190508181036000830152612a21816129e5565b9050919050565b7f746172676574206e6f742077686974656c697374656400000000000000000000600082015250565b6000612a5e601683611ba5565b9150612a6982612a28565b602082019050919050565b60006020820190508181036000830152612a8d81612a51565b9050919050565b7f6d6574686f64206e6f742077686974656c697374656400000000000000000000600082015250565b6000612aca601683611ba5565b9150612ad582612a94565b602082019050919050565b60006020820190508181036000830152612af981612abd565b9050919050565b7f4f776e61626c653a2063616c6c6572206973206e6f7420746865206f776e6572600082015250565b6000612b36602083611ba5565b9150612b4182612b00565b602082019050919050565b60006020820190508181036000830152612b6581612b29565b9050919050565b600081905092915050565b6000612b8282611e0a565b612b8c8185612b6c565b9350612b9c818560208601611e26565b80840191505092915050565b6000612bb48284612b77565b915081905092915050565b7f697354727573746564466f727761726465723a20726576657274656400000000600082015250565b6000612bf5601c83611ba5565b9150612c0082612bbf565b602082019050919050565b60006020820190508181036000830152612c2481612be8565b9050919050565b7f697354727573746564466f727761726465723a2062616420726573706f6e7365600082015250565b6000612c61602083611ba5565b9150612c6c82612c2b565b602082019050919050565b60006020820190508181036000830152612c9081612c54565b9050919050565b600081519050612ca681611fb1565b92915050565b600060208284031215612cc257612cc1611c7e565b5b6000612cd084828501612c97565b91505092915050565b7f696e76616c696420666f7277617264657220666f7220726563697069656e7400600082015250565b6000612d0f601f83611ba5565b9150612d1a82612cd9565b602082019050919050565b60006020820190508181036000830152612d3e81612d02565b9050919050565b612d4e81611ee5565b82525050565b6000602082019050612d696000830184612d45565b92915050565b7f726561644279746573343a206461746120746f6f2073686f7274000000000000600082015250565b6000612da5601a83611ba5565b9150612db082612d6f565b602082019050919050565b60006020820190508181036000830152612dd481612d98565b905091905056fe332e302e302d626574612e322b6f70656e67736e2e77686974656c6973742e697061796d6173746572a26469706673582212200fcfb66ecd62b776f1965a9763449e2e4f8b35e5eae1452671d78b55c4aceaac64736f6c63430008110033",
  "linkReferences": {},
  "deployedLinkReferences": {}
}